:020000040800F2
:1000000050050020050100085F080008FB070008F4
:100010005B080008790100083B110008000000009F
:10002000000000000000000000000000A10D00081A
:100030007D010008000000000D0A0008B50E000850
:100040001F0100081F0100081F0100081F01000810
:100050001F0100081F010008910100084902000863
:100060001F010008A1020008FD0200081F0100088E
:100070001F0100081F0100081F0100081F010008E0
:100080001F0100081F0100081F0100081F010008D0
:100090001F0100081F0100081F0100085503000888
:1000A0001F0100081F0100081F0100081F010008B0
:1000B0001F0100081F0100081F0100081F010008A0
:1000C0001F0100081F0100081F0100081F01000890
:1000D0001F010008190F00081F0100081F01000878
:1000E000E90100081F0100081F010008DFF810D017
:1000F00000F030F80048004735130008AFF30080E7
:10010000500500200648804706480047FEE7FEE706
:10011000FEE7FEE7FEE7FEE7FEE7FEE7FEE7FEE7B7
:10012000B90E0008ED00000830B50B46014600206E
:100130002022012409E021FA02F59D4205D303FAA9
:1001400002F5491B04FA02F52844151EA2F101022A
:10015000F1DC30BD064C074D06E0E06840F00103DD
:1001600094E8070098471034AC42F6D3FFF7C2FF7B
:10017000C8140008E814000800BFFEE7704701B586
:1001800002E00098401E009000980028F9D108BDB8
:1001900010B5012000F014F9F8B11048007808B942
:1001A000012000E000200D4908700846007810B1D9
:1001B00001280DD106E001200949087002200949F3
:1001C000487006E00120064908700649487000E0C2
:1001D00000BF00BF012000F0EDF810BD02000020BC
:1001E000060000204800002010B54FF4005000F039
:1001F000E7F808B31148007808B9012000E00020B2
:100200000E4908700846007810B101280ED106E0AA
:1002100001200B49087002200A49887007E001207C
:100220000749087003200749887000E000BF00BF3D
:100230004FF4005000F0BEF810BD00000500002093
:10024000060000204800002010B5022000F0B8F899
:10025000F8B11048007808B9012000E000200D49ED
:1002600008700846007810B101280DD106E0012081
:100270000949087002200949887006E001200649F2
:1002800008700649887000E000BF00BF022000F03F
:1002900091F810BD04000020060000204800002056
:1002A00010B5082000F08CF800B31148007808B9A8
:1002B000012000E000200E4908700846007810B1C7
:1002C00001280ED106E001200A49087002200A49DF
:1002D000487007E00120074908700320064948706C
:1002E00000E000BF00BF082000F064F810BD00006F
:1002F00003000020060000204800002010B5102058
:1003000000F05EF8F8B11048007808B9012000E06C
:1003100000200D4908700846007810B101280DD161
:1003200006E001200949087002200949087006E02A
:100330000120064908700649087000E000BF00BFB0
:10034000102000F037F810BD00000020060000204B
:100350004800002010B54FF4807000F031F808B369
:100360001148007808B9012000E000200E4908700B
:100370000846007810B101280ED106E001200B4993
:10038000087002200A49087007E001200749087038
:1003900003200749087000E000BF00BF4FF48070E1
:1003A00000F008F810BD0000010000200600002049
:1003B0004800002001490860704700001404014013
:1003C000014600200022074B1B6803EA0102054B8F
:1003D00014331B680B4013B10AB1012000E0002068
:1003E0007047000000040140002123498279002A5F
:1003F0003AD00A46126803689A430B461A600A1DEF
:10040000126803689A430B1D1A60027911440A6846
:1004100003681A430A60184A0832126803689A434C
:10042000154B08331A601A1D126803689A43124B61
:100430000C331A604279102A0ED11A1F1268036811
:100440001A430D4B08331A601A1D126803681A43C9
:10045000094B0C331A600DE00749427911440A68D0
:1004600003681A430A6005E0027911440A680368C8
:100470009A430A6070470000000401400EB5012154
:100480000D2000F0C5FA0121584800F061F900F094
:10049000B6F91020ADF8080004208DF80B0002A971
:1004A000534800F0C9F80421002000F0A5F81020FE
:1004B000009000208DF8040010208DF80500012028
:1004C0008DF806006846FFF78FFF4FF48070ADF897
:1004D000080004208DF80B0002A9464800F0ACF893
:1004E0000821012000F088F84FF48070009000206F
:1004F0008DF8040010208DF8050001208DF806000D
:100500006846FFF771FF0120ADF8080004208DF860
:100510000B0002A9374800F08FF80021012000F0FD
:100520006BF80120009000208DF8040010208DF859
:10053000050001208DF806006846FFF755FF0820EA
:10054000ADF8080004208DF80B0002A9294800F03E
:1005500073F80321012000F04FF8082000900020DC
:100560008DF8040010208DF8050001208DF806009C
:100570006846FFF739FF0220ADF8080004208DF827
:100580000B0002A91B4800F057F80121084600F0B3
:1005900033F80220009000208DF8040010208DF820
:1005A000050001208DF806006846FFF71DFF4FF497
:1005B0000050ADF8080004208DF80B0002A90D488A
:1005C00000F03AF80D21012000F016F84FF4005029
:1005D000009000208DF8040010208DF80500012007
:1005E0008DF806006846FFF7FFFE0EBD00023000E2
:1005F00000080140000C014030B500228B071C0FA1
:100600000F2303FA04F20B4B8C1053F8243093435E
:10061000084C8D1044F8253023468C1053F82430B4
:100620008C07240F00FA04F42343024C8D1044F885
:10063000253030BD080001402DE9F041024600257B
:100640000026002000230024002791F803C00CF0AE
:100650000F0591F803C00CF0100CBCF1000F03D093
:1006600091F802C04CEA050591F800C0BCF1000FFA
:1006700031D0146800202BE04FF0010C0CFA00F38D
:10068000B1F800C00CEA03069E4220D183004FF06F
:100690000F0C0CFA03F7BC4305FA03FC4CEA040404
:1006A00091F803C0BCF1280F06D14FF0010C0CFAF1
:1006B00000FCC2F814C00AE091F803C0BCF1480F76
:1006C00005D14FF0010C0CFA00FCC2F810C0401C20
:1006D0000828D1D31460B1F800C0BCF1FF0F34DD9D
:1006E000546800202EE000F1080C4FF0010808FAD1
:1006F0000CF3B1F800C00CEA03069E4221D183003E
:100700004FF00F0C0CFA03F7BC4305FA03FC4CEA5C
:10071000040491F803C0BCF1280F05D100F1080CC6
:1007200008FA0CF8C2F8148091F803C0BCF1480F25
:1007300007D100F1080C4FF0010808FA0CF8C2F8D4
:100740001080401C0828CED35460BDE8F081000022
:10075000F0B50A46002300240021002500F00046E1
:10076000B6F1004F02D11D4EF16901E01B4E7168D8
:10077000C0F3034583B200F44016B6F5401F08D11C
:1007800021F07061154E766826F07066134F7E601A
:1007900012E000F48016B6F5801F06D1032606FA93
:1007A00005F4A14341F0706106E0460D360103FAFD
:1007B00006F6B14341F0706122B1460D360103FAED
:1007C00006F6314300F00046B6F1004F02D1034E69
:1007D000F16101E0014E7160F0BD000000000140D8
:1007E0000246002093680B400BB1012000E000207E
:1007F0007047416170470161704700BFFEE708B56F
:100800000A208DF8000002208DF801008DF802000A
:1008100001208DF80300684600F0B6F817208DF827
:100820000000684600F0B0F806208DF80000684629
:1008300000F0AAF809208DF80000684600F0A4F83E
:1008400007208DF80000684600F09EF828208DF8FB
:100850000000684600F098F808BD00BFFEE770474A
:100860001FB510A103C9CDE90201052202A930205C
:1008700000F054FA05226946102000F00FFA002417
:1008800006E01DF80400C22800D003E0601CC4B2DA
:10089000052CF6DB00BF052C02D1012004B010BDF1
:1008A0000020FBE7C2C2C2C2C200000010B54FF474
:1008B00000411748FFF79DFF05221649302000F040
:1008C0002DFA052214492A2000F028FA01212120BE
:1008D00000F04AFA0121222000F046FA1A212420D1
:1008E00000F042FA1221252000F03EFA0F212620C6
:1008F00000F03AFA0E21202000F036FA4FF40041C1
:100900000348FFF778FF4FF6FF70FFF738FC10BD84
:1009100000080140080000200D00002070B50546C9
:100920004FF400411648FFF764FF20222946A0201B
:1009300000F0F4F94FF400411148FFF75CFF00BFED
:100940004FF480410F48FFF74BFF0028F8D10720F4
:1009500000F0CAF904462146272000F005FAFF21DD
:10096000E12000F001FA04F0100008B1102070BD81
:1009700004F0200008B12020F9E70020F7E700008C
:10098000000801400010014070B5002100230F2233
:10099000C47804B3154C246804F4E064C4F5E0643E
:1009A000210AC1F10403CA40447804FA03F18478AF
:1009B0001440214309010E4C0678A155047804F037
:1009C0001F050124AC4005786D11AD0005F1E0254F
:1009D000C5F8004109E0047804F01F050124AC408B
:1009E000044D0678761145F8264070BD0CED00E008
:1009F00000E400E080E100E002490143024A1160A6
:100A0000704700000000FA050CED00E070470000A0
:100A100029B1064A92690243044B9A6104E0034AF1
:100A200092698243014B9A617047000000100240B6
:100A300030B500210022002400232D4D6D6805F003
:100A40000C0121B1042905D0082923D105E0294D45
:100A5000056022E0274D05601FE0254D6D6805F417
:100A60007012234D6D6805F48034022505EB924227
:100A70001CB9214D554305600BE01D4D6D6805F413
:100A800000351DB11C4D5543056002E0194D55431D
:100A9000056002E0174D056000BF00BF144D6D6892
:100AA00005F0F0010909154D6B5C0568DD404560F6
:100AB0000F4D6D6805F4E061090A104D6B5C4568E7
:100AC000DD4085600A4D6D6805F46051C90A0B4D23
:100AD0006B5C4568DD40C560054D6D6805F44041BF
:100AE000890B074D6B5CC568B5FBF3F5056130BD3F
:100AF0000010024000127A0000093D00340000207E
:100B00004400002021B1028842F04002028004E04B
:100B100002884FF6BF731A400280704702460020D9
:100B200013890B400BB1012000E000207047014603
:100B3000888970478181704710B50022028802F4CD
:100B400041520B884C8823438C882343CC88234311
:100B50000C8923434C8923438C892343CC89234329
:100B60001A430280838B4FF2FF74234083830B8AE6
:100B7000038210BD00B587B001211420FFF748FFA4
:100B800001210846FFF744FF01213248FFF7E0FD4D
:100B900001210803FFF73CFFE020ADF8040001202D
:100BA0008DF8060018208DF8070001A92A48FFF7E4
:100BB00043FD0120ADF804008DF8060010208DF8EB
:100BC000070001A92448FFF737FD4FF40040ADF8B6
:100BD000040001208DF8060010208DF8070001A9FF
:100BE0001D48FFF729FD4FF48040ADF804000120B7
:100BF0008DF8060048208DF8070001A91748FFF777
:100C00001BFD01211448FFF7F6FD0020ADF8080098
:100C10004FF48270ADF80A000020ADF80C00ADF87A
:100C20000E00ADF810004FF40070ADF81200102067
:100C3000ADF814000020ADF816000720ADF818003C
:100C400002A90748FFF778FF01210548FFF75AFF7F
:100C500007B000BD00023000000801400010014054
:100C60000030014010B5044600BF02210A48FFF7DA
:100C700055FF0028F9D021460748FFF75BFF00BF6A
:100C800001210548FFF74AFF0028F9D00248FFF785
:100C90004EFFC0B210BD0000003001402DE9F04110
:100CA00007460D4616464FF400410E48FFF7A1FDDA
:100CB00001210C48FFF79DFD3846FFF7D3FF804622
:100CC000002405E0FF20FFF7CDFF2855601CC4B2CB
:100CD000B442F7DB01210348FFF78DFD4046BDE834
:100CE000F08100000008014070B504464FF4004157
:100CF0000948FFF77EFD01210748FFF77AFD2046EE
:100D0000FFF7B0FFFF20FFF7ADFF054601210248C6
:100D1000FFF771FD284670BD000801402DE9F04144
:100D200007460C4615464FF400410E48FFF761FD9B
:100D300001210C48FFF75DFD3846FFF793FF804621
:100D4000002605E014F8010BFFF78CFF701CC6B2FB
:100D5000AE42F7DB01210348FFF74DFD4046BDE8F9
:100D6000F08100000008014070B505460C464FF4C4
:100D700000410A48FFF73DFD01210848FFF739FD12
:100D80002846FFF76FFF06462046FFF76BFF01215D
:100D90000248FFF730FD304670BD000000080140FA
:100DA000704710B500F002F810BD00000CB500202F
:100DB000019000903348006840F480303149086069
:100DC00000BF3048006800F4003000900198401CDB
:100DD0000190009818B90198B0F5A06FF1D1294899
:100DE000006800F4003010B10120009001E0002004
:100DF00000900098012843D12348006840F010007B
:100E0000214908600846006820F003000860084691
:100E1000006840F0020008601A48406819494860BC
:100E20000846406848600846406840F48060486072
:100E30000846406820F47C1048600846406840F44A
:100E4000E81048600846006840F08070086000BF05
:100E50000C48006800F000700028F9D0094840688C
:100E600020F00300074948600846406840F002004F
:100E7000486000BF0348406800F00C000828F9D122
:100E80000CBD00000010024000200240042808D1E0
:100E90004FF0E021096941F004014FF0E0221161B7
:100EA00007E04FF0E021096921F004014FF0E02252
:100EB000116170477047000010B51348006840F09A
:100EC00001001149086008464068104908400E4971
:100ED0004860084600680E4908400B49086008460B
:100EE000006820F4802008600846406820F4FE0076
:100EF00048604FF41F008860FFF753FF4FF0006019
:100F00000449086010BD0000001002400000FFF816
:100F1000FFFFF6FE08ED00E010B540F225511D4838
:100F200000F04AF810B31B4800F002F9C4B21A48A6
:100F3000008800F40040C8B91748008800F48040D9
:100F400060B10A2C03D000201349088020E0124829
:100F5000008840F400401049088019E00D2C06D1AB
:100F60000D48008840F480400B49088010E00A4892
:100F70000088C0F30D0009490C5407480088401C44
:100F80000549088008460088C72801DD0020088040
:100F900010BD0000003801401C0000208800002027
:100FA00021B1828942F40052828104E082894DF6A7
:100FB000FF731A408281704770B5024600240023F7
:100FC0000025002040F66A16B14200D100BFC1F3EF
:100FD000421501F01F03012606FA03F3012D02D189
:100FE0009689334006E0022D02D1168A334001E093
:100FF000968A33400C12012606FA04F4168834400F
:1010000013B10CB1012000E0002070BDF0B5034623
:10101000002400260025002040F66A17B94200D1BE
:1010200000BF1846C1F3421401F01F06012707FA5A
:1010300006F5012C01D10C3004E0022C01D1103056
:1010400000E014301AB107682F43076002E0076818
:10105000AF430760F0BD00002DE9F04786B00546BC
:101060000E460024A24600BFA1460027B08900B169
:1010700000BF2F462C8A4CF6FF700440F0880443D2
:101080002C82AC894EF6F3100440B08831890843B5
:10109000718908430443AC81AC8A4FF6FF40044099
:1010A000B0890443AC8201A8FFF7C2FC1F48874205
:1010B00002D1DDF810A001E0DDF80CA0A88900F451
:1010C000004040B10AEBCA0000EB0A103168490049
:1010D000B0FBF1F807E00AEBCA0000EB0A10316838
:1010E0008900B0FBF1F86420B8FBF0F0040120099E
:1010F000642101FB1089A88900F4004040B132202E
:1011000000EBC900B0FBF1F000F00700044308E079
:10111000322000EB09106421B0FBF1F000F00F0069
:1011200004432C8106B0BDE8F08700000038014080
:1011300001468888C0F30800704700BFFEE7000042
:101140000FB4054B10B503A9044A029800F018F833
:1011500010BC5DF814FB00001913000818000020F3
:1011600002E008C8121F08C1002AFAD17047704770
:10117000002001E001C1121F002AFBD170470000CE
:101180002DE9FF4F89B09B460446002506E025283F
:101190000BD05A460B999047641C6D1C2078002890
:1011A000F5D10DB02846BDE8F08F0027B8460122E2
:1011B000474900E0074314F8013F203B02FA03F0DF
:1011C0000842F7D120782E2819D114F8010F47F0E2
:1011D00004072A280ED06FF02F022078A0F13001EA
:1011E00009290CD808EB880102EB410100EB01084A
:1011F000641CF2E70A98641C50F8048B0A9020786B
:101200000028CED0642808D0692806D075281ED0C2
:101210005A460B9990476D1C58E00A994FF00A09FD
:1012200001C90A91002802DA40422D2102E0390565
:1012300004D52B218DF82010012103E0F90704D0FB
:101240002021F7E78A4608AE0DE00021FAE70A9967
:101250004FF00A0901C90A91F7E74946FEF764FF12
:10126000303106F8011D0028F7D1ADEB060000F182
:101270002009780701D44FF00108C84502DDA8EB2A
:10128000090000E000208046002706E008A85A4632
:10129000C05D0B9990476D1C7F1C5745F6DB04E041
:1012A00030205A460B9990476D1CB8F10001A8F107
:1012B0000108F5DC05E016F8010B5A460B9990473A
:1012C0006D1CB9F10001A9F10109F4DC641C65E7AA
:1012D0000928010010B56FF00400FFF7D7FD0A4898
:1012E00000680A49B0FBF1F0094908700846007827
:1012F00000EB4001C1EBC0104FF6FF7101EAC000E6
:101300000449088010BD00002000002000127A006F
:10131000120000201400002000BF054A128802F0CD
:101320004002002AF9D0C2B2014B1B1D1A8070473F
:1013300000380140FFF7CEFF4FF4A060FFF75CFBE1
:101340004FF4E13000F070F8FFF798F8FFF712FC67
:10135000FFF786FA1449087008460078012803D17F
:1013600012A0FFF7EDFE02E017A0FFF7E9FEFFF77E
:101370009DFA18E01F480078012814D11E48FFF795
:10138000CDFA0949087008460078202803D11BA02F
:10139000FFF7D6FE04E0044801781DA0FFF7D0FE59
:1013A000002014490870E5E7070000200D0A2020FE
:1013B000202020204E5246D3EB4D4355C1ACBDD327
:1013C000B3C9B9A60D0A00000D0A202020D5FDD40E
:1013D000DABCECB2E24E5246D3EB4D4355CAC7B726
:1013E000F1D5FDB3A3C1ACBDD3A1A3A1A3A1A30D0E
:1013F0000A00000006000020480000200D0AB7A2E5
:10140000CBCDCAFDBEDDB3C9B9A60D0A00000000F0
:101410000D0AB7A2CBCDCAFDBEDDCAA7B0DC202025
:1014200025640D0A0000000010B586B004460121B5
:1014300044F20400FFF7ECFA4FF40070ADF814002A
:1014400003208DF8160018208DF8170005A91C48F8
:10145000FFF7F2F84FF48060ADF8140004208DF827
:10146000170005A91648FFF7E7F825208DF80000BA
:1014700003208DF801008DF8020001208DF8030093
:101480006846FFF781FA01940020ADF80800ADF836
:101490000A00ADF80C00ADF810000C20ADF80E00FD
:1014A00001A90848FFF7D8FD012240F2255105485F
:1014B000FFF7ACFD01210348FFF772FD06B010BD38
:1014C0000008014000380140E81400080000002036
:1014D0004800000060110008301500084800002096
:1014E0000805000070110008000000000000000066
:1014F00034431010013443101001000000000000BC
:10150000000000000000000000A24A0400000000EB
:1015100000000000010203040607080900000000A3
:101520000102030401020304060708090204060875
:04000005080000ED02
:00000001FF
