:020000040800F2
:100000002807002049010008F91300081F0E000806
:10001000F5130008E506000817340008000000008A
:10002000000000000000000000000000491A000865
:10003000E9060008000000008D150008CF1C00082C
:100040006301000863010008630100086301000800
:100050006301000863010008ED060008D9070008E5
:100060004908000891090008A50900086301000873
:1000700063010008630100086301000863010008D0
:1000800063010008630100086301000863010008C0
:10009000630100086301000863010008190A0008F1
:1000A00063010008630100086301000863010008A0
:1000B00095260008D12800080D2B000863010008D0
:1000C0006301000863010008630100086301000880
:1000D000630100088D300008630100081531000835
:1000E000610700086301000863010008630100085C
:1000F0006301000863010008630100086301000850
:10010000630100086301000863010008630100083F
:10011000630100086301000863010008630100082F
:10012000630100086301000863010008630100081F
:10013000DFF810D000F00EFA00480047BD3C000880
:10014000AFF3008028070020064880470648004794
:10015000FEE7FEE7FEE7FEE7FEE7FEE7FEE7FEE777
:10016000FEE7FEE7D11C00083101000840EA010368
:100170009B0703D009E008C9121F08C0042AFAD25D
:1001800003E011F8013B00F8013B521EF9D2704721
:10019000421C10F8011B0029FBD1801A70472DE981
:1001A000FE4F81EA030404F0004421F00041009472
:1001B0004FF0000B23F0004350EA01045ED052EAF6
:1001C00003045BD0C3F30A54C1F30A552C44A4F2D0
:1001D000F3340194A0FB0254C1F3130141F48011E4
:1001E000C3F3130343F4801301FB024400FB034EEB
:1001F000840A970A44EA815447EA8357A4FB0768B4
:1002000002958D0A05FB07854FEA932C04FB0C54DD
:100210002705029D4FEA065847EA1637B5EB080551
:100220006EEB070C870E920E47EA811742EA8312A3
:10023000A7FB0201B6EB0B0164EB00042B0D43EAB4
:100240000C335E1844EB1C50DA465146E7FB0201C2
:10025000C5F313044FEA0B3343EA14534FEA043255
:10026000019C43EA0603A4F10C040294009CCDE92E
:1002700000B400F0D0F803B0BDE8F08F00200146D4
:10028000F9E72DE9F04D81EA030404F0004B21F079
:10029000004514464FF0000A23F0004150EA0502E1
:1002A00020D054EA01021DD0C5F30A570246C5F317
:1002B0001303C1F31300C1F30A5640F4801543F44D
:1002C0008013A7EB0608101BD64608F2FD3873EB27
:1002D000050002D308F1010801E092185B41B8F172
:1002E000000F03DA00200146BDE8F08D00204FF436
:1002F0008011064684460EE0171B73EB050705D3F5
:10030000121B63EB050306434CEA010C49084FEA54
:10031000300092185B4150EA0107EDD152EA030028
:1003200012D082EA040083EA0501084305D0101BBD
:10033000AB4106D20122002306E000224FF0004329
:1003400002E06FF0010253101AEB06004CEB08516B
:1003500010EB0A0041EB0B01BDE8F04D00F04CB88A
:100360000EB540F2334102910021CDE900110A4659
:100370000B4600F050F803B000BDC1F30A5210B5AF
:10038000C1F3130140F2FF3341F480119A4201DAC4
:10039000002010BD40F233439A42A2F2334203DC04
:1003A000524200F019F810BD904010BD30B50B4618
:1003B000014600202022012409E021FA02F59D4295
:1003C00005D303FA02F5491B04FA02F52844151E69
:1003D000A2F10102F1DC30BD202A04DB203A21FA2F
:1003E00002F00021704721FA02F3D040C2F120024E
:1003F000914008431946704710B5141E73F100046C
:1004000008DA401C41F1000192185B411A4301D106
:1004100020F0010010BD2DE9F04D92469B4611B130
:10042000B1FA81F202E0B0FA80F22032904600F098
:10043000A3F804460F4640EA0A0041EA0B0153467E
:100440005A46084313D0114653EA010019D0C8F1A7
:1004500040025046FFF7C0FF05460E46504659463B
:10046000424600F089F8084305D0012004E0204608
:100470003946BDE8F08D0020054346EAE0762C437E
:1004800037430A986305E40AA0EB08000022FD0A3E
:1004900044EA47540A3002D500200146E9E7010545
:1004A00010196941DDE9084500196941BDE8F04DC1
:1004B000A2E72DE9F04D00231A461B1A8A4103DBFF
:1004C00000200146BDE8F08DC1F30A52C1F31301CB
:1004D00041F480154FF0000BD10702D100186D4197
:1004E000521E0027044640F2FF11384601EB620A13
:1004F0003E468046024600204FF48011FFF76CFF15
:10050000C2197141BB1846EB0100B4EB030C75EB4B
:10051000000C04D3E41A65EB000517460E462419B7
:1005200008F101006D4180463428E3DDF91946EBFE
:100530000600091BA84103D24FF0FF32134601E029
:10054000002213461BEB070046EB0A51BDE8F04DB5
:10055000FFF752BF064C074D06E0E06840F001038C
:1005600094E8070098471034AC42F6D3FFF7E4FD57
:10057000D0470008F0470008202A04DB203A00FAA0
:1005800002F1002070479140C2F1200320FA03F3EA
:10059000194390407047000010B5B4204C490880C2
:1005A00096204C4908804A4801884B4802F003FDD8
:1005B00010204A4948614CF2503003F00DFB0020F6
:1005C000474908701BE0424800880A3840490880C3
:1005D00040480088401C3F4908803D4801883E480B
:1005E00002F0E9FC3B4801883B4802F0E0FC642053
:1005F00003F0F2FA3A480078401C3949087038484C
:1006000000780C28DFDB10203449086100203449D1
:10061000087011E02F480088801C2E490880084689
:1006200001882D4802F0C3FC642003F0D5FA2C4861
:100630000078401C2A490870294800780228E9DB24
:100640004FF47A6003F0C8FA4FF47A6003F0C4FA0A
:1006500000202349087011E01E480088801E1D49B3
:100660000880084601881C4802F0A1FC642003F0C1
:10067000B3FA1B480078401C1949087018480078E4
:100680000228E9DB0020164908701BE010480088AA
:100690000A300F4908800F480088401E0D49088025
:1006A0000B4801880C4802F086FC0A4801880A4879
:1006B00002F07DFCC82003F08FFA09480078401C46
:1006C00007490870064800780C28DFDB10BD0000E1
:1006D0003200002030000020000C004000100140DB
:1006E000D000002000BFFEE77047000010B50120D9
:1006F00000F0D6F9C0B1012001F01AFB00200B492F
:1007000008600B48007880F001000949087008462D
:10071000017808A003F06EF90448016809A003F00D
:1007200069F9012000F0B6F910BD00003800002082
:100730002800002063656E7472655F58CEAA256438
:100740000A000000CEBBD6C3D2D1C7E5C1E3A3AC3B
:10075000B5B1C7B058CEBBD6C3CEAA25640A000037
:1007600010B54FF4006000F09BF9C8B1012001F012
:100770006FFC00200B4908600B48007880F00100F6
:10078000094908700846017808A003F033F90548C4
:1007900001680AA003F02EF94FF4006000F07AF926
:1007A00010BD00004C0000202900002063656E741D
:1007B00072655F59CEAA25640A000000CEBBD6C37D
:1007C000D2D1C7E5C1E3A3ACB5B1C7B059CEBBD652
:1007D000C3CEAA25640A000010B5022000F060F91B
:1007E00040B3002001F0A4FA4FF4FA731A461946F8
:1007F000114801F0E5FA002001F02AFC4FF4FA73E9
:100800001A4619460C4801F06DFC002001F0B4FDB9
:100810004FF4FA731A461946084801F0F3FDB42064
:100820000749088008460188064802F0C0FB0220FC
:1008300000F030F910BD000010AAFFFF70A0FEFF0D
:1008400030000020000C004010B5042000F028F912
:1008500000284FD028480078401C274908700846D7
:100860000078032801D1002008702348007820B1C7
:10087000012814D0022838D11DE020A003F0BAF8D6
:100880002248007880F001002049087020A1022051
:1008900001F0DBF84FF4167003F09EF926E023A078
:1008A00003F0A8F825A1022001F0CFF84FF4C8709A
:1008B00003F092F91AE027A003F09CF896202A4949
:1008C000088008460188294802F071FB2848007812
:1008D00080F001002649087026A1022001F0B5F839
:1008E0004FF4167003F078F900E000BF00BF042059
:1008F00000F0D0F810BD00002D0000200A20D2A387
:10090000BFD8C4A3CABD200A000000002C000020EC
:100910005B7631365D5B6D315D5B74355DC8FDD6F0
:10092000E1D2A3BFD8C4A3CABD0000000A20D3EF00
:10093000D2F4C4A3CABD200A000000005B763136A1
:100940005D5B6D315D5B74355DD3EFD2F4C4A3CADA
:10095000BD0000000A20B7ADCAE9D2A3BFD8C4A326
:10096000CABD200A0000000030000020000C00403A
:100970002B0000205B7631365D5B6D315D5B74353D
:100980005DB7ADCAE9D2A3BFD8C4A3CABD000000F9
:1009900010B5082000F084F810B1082000F07AF8B3
:1009A00010BD000010B5102000F07AF8C0B1012091
:1009B00001F0E2FC00200B4908600B48007880F051
:1009C0000100094908700846017808A003F012F8F0
:1009D0000448016809A003F00DF8102000F05AF84F
:1009E00010BD0000600000202A00002063656E74C6
:1009F00072655F5ACEAA25640A000000CEBBD6C33A
:100A0000D2D1C7E5C1E3A3ACB5B1C7B058CEBBD610
:100A1000C3CEAA25640A000010B54FF4007000F0A0
:100A20003FF848B100F0B4FD4FF4007000F02CF82E
:100A30004FF4007000F02EF810BD0EB501210846ED
:100A400000F010FE0921012000F0E8F84FF40070DA
:100A5000019000208DF808000C208DF8090001207D
:100A60008DF80A0001A800F02FF817208DF800007B
:100A700002208DF801008DF8020001208DF803009E
:100A8000684600F041FD0EBD014908607047000056
:100A9000140401400149086070470000140401403B
:100AA000014600200022074B1B6803EA0102054BA8
:100AB00014331B680B4013B10AB1012000E0002081
:100AC0007047000000040140002123498279002A78
:100AD0003AD00A46126803689A430B461A600A1D08
:100AE000126803689A430B1D1A60027911440A6860
:100AF00003681A430A60184A0832126803689A4366
:100B0000154B08331A601A1D126803689A43124B7A
:100B10000C331A604279102A0ED11A1F126803682A
:100B20001A430D4B08331A601A1D126803681A43E2
:100B3000094B0C331A600DE00749427911440A68E9
:100B400003681A430A6005E0027911440A680368E1
:100B50009A430A6070470000000401400EB501216D
:100B6000192000F07FFD00F05CF90220ADF80800CC
:100B700004208DF80B0002A9264800F06FF801212F
:100B8000084600F04BF80220009000208DF8040089
:100B90000C208DF8050001208DF806006846FFF74F
:100BA00093FF0820ADF8080004208DF80B0002A97F
:100BB000194800F053F80321022000F02FF8082014
:100BC000009000208DF804000C208DF80500012015
:100BD0008DF806006846FFF777FF0420ADF808009F
:100BE0008DF80B0002A90C4800F038F802210846E5
:100BF00000F014F80420009000208DF804000C2070
:100C00008DF8050001208DF806006846FFF75CFFAF
:100C10000EBD0000000C01400010014030B5002264
:100C20008B071C0F0F2303FA04F20B4B8C1053F8A5
:100C300024309343084C8D1044F8253023468C1003
:100C400053F824308C07240F00FA04F42343024C99
:100C50008D1044F8253030BD080001402DE9F041E9
:100C6000024600250026002000230024002791F8DA
:100C700003C00CF00F0591F803C00CF0100CBCF190
:100C8000000F03D091F802C04CEA050591F800C0AE
:100C9000BCF1000F31D0146800202BE04FF0010CA4
:100CA0000CFA00F3B1F800C00CEA03069E4220D112
:100CB00083004FF00F0C0CFA03F7BC4305FA03FC5A
:100CC0004CEA040491F803C0BCF1280F06D14FF0A0
:100CD000010C0CFA00FCC2F814C00AE091F803C041
:100CE000BCF1480F05D14FF0010C0CFA00FCC2F822
:100CF00010C0401C0828D1D31460B1F800C0BCF16A
:100D0000FF0F34DD546800202EE000F1080C4FF096
:100D1000010808FA0CF3B1F800C00CEA03069E4281
:100D200021D183004FF00F0C0CFA03F7BC4305FAF6
:100D300003FC4CEA040491F803C0BCF1280F05D170
:100D400000F1080C08FA0CF8C2F8148091F803C0FE
:100D5000BCF1480F07D100F1080C4FF0010808FA68
:100D60000CF8C2F81080401C0828CED35460BDE8AF
:100D7000F0810000F0B50A46002300240021002580
:100D800000F00046B6F1004F02D11D4EF16901E0BE
:100D90001B4E7168C0F3034583B200F44016B6F5EC
:100DA000401F08D121F07061154E766826F07066FC
:100DB000134F7E6012E000F48016B6F5801F06D156
:100DC000032606FA05F4A14341F0706106E0460DE2
:100DD000360103FA06F6B14341F0706122B1460DC7
:100DE000360103FA06F6314300F00046B6F1004F33
:100DF00002D1034EF16101E0014E7160F0BD0000CF
:100E0000000001400246002093680B400BB1012016
:100E100000E000207047416170470161704700BFEA
:100E2000FEE708B507208DF8000001208DF80100CD
:100E30008DF802008DF80300684600F065FB09207C
:100E40008DF80000684600F05FFB08208DF8000078
:100E5000684600F059FB08BD08B50121092000F0E3
:100E600001FC01211D48FFF785FF8020ADF800003F
:100E700010208DF8030003208DF802006946184801
:100E8000FFF7ECFE2020ADF8000069461448FFF79C
:100E9000E5FE1020ADF8000069461148FFF7DEFEC0
:100EA0000820ADF8000069460D48FFF7D7FE402046
:100EB000ADF8000048208DF8030069460848FFF7A8
:100EC000CDFE4FF40070ADF8000004208DF8030053
:100ED00069460348FFF7C2FE08BD0000000230006B
:100EE000000C014070B5CAB04FF48C72294904A8B7
:100EF000FFF73CF928A30FCB8DE80F000126002453
:100F000041E000F095F808B900263EE01DF8041015
:100F1000C12000F0F1F90021C32000F0EDF9042117
:100F2000082000F0E9F9012002F056FE0021082017
:100F300000F0E2F9012002F04FFE002512E004EB80
:100F4000840004A901EB8000405D00B90CE004EBD3
:100F5000840004AA02EB8000415D052000F0CCF97A
:100F6000681CC5B2142DEADB00BF2946B92000F089
:100F7000C3F9FF21B22000F0BFF90421372000F0AF
:100F8000BBF9601CC4B20E2CBBDB00BF30464AB0BC
:100F900070BD0000B84600080001020304050618F1
:100FA000191A1B1C1D24000010B54321352000F028
:100FB000A3F909211C2000F09FF92021BD2000F099
:100FC0009BF90121082000F097F9052002F004FEAA
:100FD0000021082000F090F9052002F0FDFD00F04E
:100FE00027F808B9002010BDFF21B22000F084F9D5
:100FF0000621372000F080F9052002F0EDFD0621E2
:10100000372000F079F9052002F0E6FD0B211C20C5
:1010100000F072F91021292000F06EF90021BD20A6
:1010200000F06AF90120DEE710B500F01DF810BDF0
:1010300070B5002600250CE0B22000F0B3F804469D
:10104000212C01D1012606E0142002F0C5FD681C08
:10105000C5B2052DF0DB00BF304670BD10B5C52010
:1010600000F0A0F810BD000010B508201949087064
:1010700000F032F80021BD2000F03EF94821172091
:1010800000F03AF9052002F0A7FD80213C2000F095
:1010900033F907213E2000F02FF9FF21382000F01E
:1010A0002BF907213A2000F027F90021402000F019
:1010B00023F90821422000F01FF90021442000F00C
:1010C0001BF90821462000F017F9052002F084FDE5
:1010D00010BD00007E00002010B5062000F062F870
:1010E0003521172000F008F9052002F075FD0620D3
:1010F00000F058F80321892000F0FEF8052002F0E6
:101100006BFD4321CF2000F0F7F8052002F064FDCD
:101110000221CB2000F0F0F80B21112000F0ECF8B8
:101120001F480078402810D100211E2000F0E4F86C
:101130000F21192000F0E0F818211B2000F0DCF846
:101140002C211D2000F0D8F80FE000211E2000F017
:10115000D3F83F21192000F0CFF848211B2000F0E0
:10116000CBF81F211D2000F0C7F8052002F034FD48
:101170000421CD2000F0C0F84C21172000F0BCF86D
:10118000052002F029FD0021B92000F0B5F84F211B
:10119000CF2000F0B1F8FF216F2000F0ADF810BDB6
:1011A0007E0000202DE9F041054600240026A046DF
:1011B000052700203A490860012002F033FD00BFF6
:1011C0001DE007F0800020B101203549091D0860AD
:1011D00003E000203249091D0860012002F022FDD1
:1011E00000202F490C3108607806070E012002F01C
:1011F00019FD01202B49C1F89C01601CC4B2082CC8
:10120000DFDB00241DE005F0800020B1012024492F
:10121000091D086003E000202149091D0860012024
:1012200002F000FD00201E490C3108606806050E22
:10123000012002F0F7FC01201A49C1F89C01601C52
:10124000C4B2082CDFDB012002F0ECFC00241BE020
:101250007006060E12487838006800F0FF0801207A
:1012600002F0E0FC00200F49C1F89C01B8F1010F29
:1012700001D146F00106012002F0D4FC012008490A
:101280000C310860601CC4B2082CE1DB012002F0C4
:10129000C9FC0120024908603046BDE8F081000029
:1012A000908121420080214210B501201049086040
:1012B000052002F091FC00200E49C1F88C010520A8
:1012C00002F08AFC01200A490860052002F084FC33
:1012D00000200849C1F89001052002F07DFC0120A2
:1012E0000349091D0860052002F076FC10BD0000CE
:1012F0008C812142008021422DE9F04105460E46B5
:1013000000240427002039490860012002F08AFCEB
:1013100000BF1DE007F0800020B101203349091D06
:10132000086003E000203149091D0860012002F037
:1013300079FC00202D490C3108607806070E012049
:1013400002F070FC01202A49C1F89C01601CC4B263
:10135000082CDFDB00241DE005F0800020B1012017
:101360002249091D086003E000202049091D08608A
:10137000012002F057FC00201C490C31086068066F
:10138000050E012002F04EFC01201949C1F89C0114
:10139000601CC4B2082CDFDB00241DE006F08000D6
:1013A00020B101201149091D086003E000200F4908
:1013B000091D0860012002F035FC00200B490C31AA
:1013C00008607006060E012002F02CFC012008497E
:1013D000C1F89C01601CC4B2082CDFDB012002F0C4
:1013E00021FC012001490860BDE8F0819081214283
:1013F0000080214200BFFEE7704700001FB510A12A
:1014000003C9CDE90201052202A9302000F0DAFA71
:1014100005226946102000F095FA002406E01DF828
:101420000400C22800D003E0601CC4B2052CF6DB27
:1014300000BF052C02D1012004B010BD0020FBE745
:10144000C2C2C2C2C200000010B54FF4004113482E
:10145000FFF7E1FC052212492A2000F0B3FA01212E
:10146000212000F0D5FA0121222000F0D1FA12212A
:10147000252000F0CDFA2021312000F0C9FA0F21FB
:10148000262000F0C5FA0F21202000F0C1FA4FF409
:1014900000410248FFF7C1FC10BD000000080140F8
:1014A0007900002070B505464FF400411448FFF75D
:1014B000B4FC1CE04FF400411148FFF7ACFC0720DE
:1014C00000F066FA04462146272000F0A1FA04F055
:1014D000400050B120222946612000F033FAFF215C
:1014E000E22000F095FA402070BD0020FCE74FF4A8
:1014F00080410448FFF786FC0028DBD00020F3E79A
:10150000000801400010014070B5002100230F22A7
:10151000C47804B3154C246804F4E064C4F5E064B2
:10152000210AC1F10403CA40447804FA03F1847823
:101530001440214309010E4C0678A155047804F0AB
:101540001F050124AC4005786D11AD0005F1E025C3
:10155000C5F8004109E0047804F01F050124AC40FF
:10156000044D0678761145F8264070BD0CED00E07C
:1015700000E400E080E100E002490143024A11601A
:10158000704700000000FA050CED00E07047000015
:1015900010B500242B20FFF705FE28490870002114
:1015A0002920FFF7A9FE00210220FFF7A5FE23480E
:1015B000007800F01000C8B1B220FFF7F3FD212839
:1015C00014D1BF20FFF7EEFD35280FD1BA20FFF769
:1015D000E9FD0446002C05DD042C03DC102018492D
:1015E000087006E011201649087002E01120144925
:1015F000087000212B20FFF77FFE00211C20FFF741
:101600007BFE00212920FFF777FE00210220FFF753
:1016100073FE00212B20FFF76FFE0021BA20FFF799
:101620006BFE0021BC20FFF767FE01210820FFF7B9
:1016300063FE00210820FFF75FFE10BD7F00002041
:101640000000002029B1064AD2690243044BDA6146
:1016500004E0034AD2698243014BDA61704700001B
:101660000010024029B1064A92690243044B9A6174
:1016700004E0034A92698243014B9A61704700007B
:101680000010024030B500210022002400232D4D1F
:101690006D6805F00C0121B1042905D0082923D17A
:1016A00005E0294D056022E0274D05601FE0254D2E
:1016B0006D6805F47012234D6D6805F480340225C1
:1016C00005EB92421CB9214D554305600BE01D4DC1
:1016D0006D6805F400351DB11C4D5543056002E0F1
:1016E000194D5543056002E0174D056000BF00BF6E
:1016F000144D6D6805F0F0010909154D6B5C056826
:10170000DD4045600F4D6D6805F4E061090A104D3C
:101710006B5C4568DD4085600A4D6D6805F460517D
:10172000C90A0B4D6B5C4568DD40C560054D6D68B1
:1017300005F44041890B074D6B5CC568B5FBF3F5BB
:10174000056130BD0010024000127A0000093D0022
:10175000F40000200401002070B50024002500BF23
:101760001DE0FFF761FC052002F036FAFFF7BAFB37
:1017700028B9FFF799FD052002F02EFA0DE00520AB
:1017800002F02AFAFFF710FC28B9FFF78DFD0520BB
:1017900002F022FA01E0012503E0601CC4B2052C2E
:1017A000DFDB00BF284670BD21B1028842F0400255
:1017B000028004E002884FF6BF731A40028070472F
:1017C0000246002013890B400BB1012000E00020ED
:1017D00070470146888970478181704710B50022A3
:1017E000028802F441520B884C8823438C8823439F
:1017F000CC8823430C8923434C8923438C8923437E
:10180000CC8923431A430280838B4FF2FF74234019
:1018100083830B8A038210BD00B587B00121142099
:10182000FFF720FF01210846FFF71CFF0121334885
:10183000FFF7A0FA01210803FFF714FFE020ADF83D
:10184000040001208DF8060018208DF8070001A97A
:101850002B48FFF703FA0220ADF8040001208DF8B1
:10186000060010208DF8070001A92548FFF7F6F9BA
:101870004FF40040ADF8040001208DF80600102060
:101880008DF8070001A91E48FFF7E8F94FF48040E2
:10189000ADF8040001208DF8060048208DF80700FF
:1018A00001A91848FFF7DAF902211548FFF7B5FA40
:1018B0000020ADF808004FF48270ADF80A00002057
:1018C000ADF80C00ADF80E00ADF810004FF400704C
:1018D000ADF812001020ADF814000020ADF816008D
:1018E0000720ADF8180002A90748FFF777FF01218C
:1018F0000548FFF759FF07B000BD000000023000A7
:1019000000080140001001400030014010B50446BD
:1019100000BF02210A48FFF753FF0028F9D02146F3
:101920000748FFF759FF00BF01210548FFF748FFAF
:101930000028F9D00248FFF74CFFC0B210BD0000EC
:10194000003001402DE9F04107460D4616464FF4A0
:1019500000410E48FFF75FFA02210C48FFF75BFADF
:101960003846FFF7D3FF8046002405E0FF20FFF74D
:10197000CDFF2855601CC4B2B442F7DB02210348F6
:10198000FFF74BFA4046BDE8F08100000008014037
:1019900070B504464FF400410948FFF73CFA0221B4
:1019A0000748FFF738FA2046FFF7B0FFFF20FFF7A0
:1019B000ADFF054602210248FFF72FFA284670BD09
:1019C000000801402DE9F04107460C4615464FF44A
:1019D00000410E48FFF71FFA02210C48FFF71BFADF
:1019E0003846FFF793FF8046002605E014F8010B08
:1019F000FFF78CFF701CC6B2AE42F7DB0221034832
:101A0000FFF70BFA4046BDE8F081000000080140F6
:101A100070B505460C464FF400410A48FFF7FBF944
:101A200002210848FFF7F7F92846FFF76FFF06463F
:101A30002046FFF76BFF02210248FFF7EEF9304620
:101A400070BD00000008014070472DE9F0418EB0E4
:101A500080460E46002700243046FEF799FBC5B2AB
:101A6000FD208DF8040000208DF80500E81CC0B2B0
:101A70008DF8060001208DF8070040EA0810C0B27A
:101A80008DF8080000BF03E001A8005D4740641C1A
:101A9000052CF9D3002402E0305D4740641CAC42C1
:101AA000FAD32A4631460DF10900FEF75FFB681DA7
:101AB00001A90F54A81DC1B201A801F0D1FB0EB0BD
:101AC000BDE8F08110B500F001F810BD0CB50020A4
:101AD000019000903348006840F48030314908603C
:101AE00000BF3048006800F4003000900198401CAE
:101AF0000190009818B90198B0F5A06FF1D129486C
:101B0000006800F4003010B10120009001E00020D6
:101B100000900098012843D12348006840F010004D
:101B2000214908600846006820F003000860084664
:101B3000006840F0020008601A484068194948608F
:101B40000846406848600846406840F48060486045
:101B50000846406820F47C1048600846406840F41D
:101B6000E81048600846006840F08070086000BFD8
:101B70000C48006800F000700028F9D0094840685F
:101B800020F00300074948600846406840F0020022
:101B9000486000BF0348406800F00C000828F9D1F5
:101BA0000CBD000000100240002002400EB50121D3
:101BB0001520FFF757FD00F05BF80120ADF8080095
:101BC00004208DF80B0002A92748FFF747F80021F1
:101BD0000220FFF723F80120009000208DF8040078
:101BE0000C208DF8050001208DF806006846FEF7F0
:101BF0006BFF4FF40060ADF8080004208DF80B0077
:101C000002A91948FFF72AF80B210220FFF706F86E
:101C10004FF40060009000208DF8040008208DF83B
:101C2000050001208DF806006846FEF74DFF1020E4
:101C3000ADF8080004208DF80B0002A90B48FFF74F
:101C40000DF804210020FEF7E9FF1020009000208D
:101C50008DF804000C208DF8050001208DF8060099
:101C60006846FEF731FF0EBD00100140000801403C
:101C700008B506208DF8000001208DF801008DF8D0
:101C800002008DF803006846FFF73EFC28208DF81F
:101C900000006846FFF738FC0A208DF8000068460F
:101CA000FFF732FC08BD042808D14FF0E021096994
:101CB00041F004014FF0E022116107E04FF0E02114
:101CC000096921F004014FF0E0221161704770476B
:101CD00010B51348006840F001001149086008463B
:101CE0004068104908400E494860084600680E499F
:101CF00008400B4908600846006820F4802008600E
:101D00000846406820F4FE0048604FF41F008860D9
:101D1000FFF7D8FE4FF000600449086010BD0000D6
:101D2000001002400000FFF8FFFFF6FE08ED00E0A3
:101D300030B10749097821F00401054A117006E025
:101D40000349097821F00401091D014A1170704707
:101D50003C00002008B501210420FFF783FC082087
:101D6000ADF8000018208DF8030003208DF8020064
:101D700069460D48FEF772FF01210820FFF772FC4B
:101D80004FF40050ADF8000010208DF80300032040
:101D90008DF8020069460548FEF760FF4FF40051D8
:101DA0000248FFF738F808BD00080140000C014068
:101DB00010B5FFF7CFFF00F03BF900F0EDF810BDD4
:101DC0002DE9F04F89B004460D4616469B46002C7F
:101DD00008DA6348007820F008000830604908708D
:101DE000644205E05E48007820F008005C49087015
:101DF0005B480078C0F3C00028B94FF4005159483F
:101E0000FFF70BF804E04FF400515648FFF703F8D2
:101E1000012C1FD1A01E524948610846007820F0CD
:101E20000700801C08704FF47A7048604E480078B4
:101E300020F00100401C4C4908701421080701F0F3
:101E4000B4F80A21480701F0B4F80121880700F02E
:101E50008AFF82E0002CFCD047F6B720B0FBFBF0F5
:101E60003F4908614148B0FBF5F00190FEF778FA70
:101E7000074602F0ABFB00223D4BCDE90201FEF725
:101E80008EF900223B4BCDE90401FEF7FAF9CDE9CA
:101E90000601FEF772FA3249486005EB4500400042
:101EA0006421B0FBF1F10BFB0BF0B0FBF1F9B9F1E0
:101EB000000F01D14FF0010904FB06F0A919B0FB96
:101EC000F1FABAF1000F01D14FF0010ACA4504D866
:101ED000AAEB04002249C86006E009FB05F0B0FB4C
:101EE000F6F040421E49C8601D48C06818B94FF05E
:101EF000FF301B49C8601A48C068204418498860F0
:101F000008464068096988420AD81548006914499A
:101F100048600846007820F00700C01C087006E002
:101F20000F48007820F00700401C0D490870002081
:101F30000B4948610C48007820F00100401C0A4918
:101F400008701421080701F030F80A21480701F051
:101F500030F80121880700F006FF09B0BDE8F08FD6
:101F60004C010020000C01403C000020ACDF5F0071
:101F70000068BA4000005940012805D105490968A8
:101F8000491E044A116004E002490968491C014ADB
:101F9000116070473800002000B587B00121084665
:101FA000FFF750FB04A801F05BF80920ADF814001E
:101FB0004720ADF810000020ADF81600ADF8120073
:101FC00004A94FF0804000F0F9FF7020ADF8000048
:101FD0000120ADF802000020ADF804000420ADF8A7
:101FE00006000220ADF808000020ADF80C0069469C
:101FF0004FF0804000F08EFF0821C80600F0C8FFB7
:102000000121880700F0A0FE0121880701F031F8C6
:102010000121880700F0A4FE01221146900700F07C
:10202000BFFE00214FF0804000F09DFE07B000BDD4
:1020300008B51C208DF8000002208DF801008DF8F5
:10204000020001208DF803006846FFF75DFA08BD25
:1020500030B10749097821F00401054A117006E002
:102060000349097821F00401091D014A11707047E4
:102070005000002008B501210820FFF7F3FA4FF4C3
:102080008070ADF8000018208DF8030003208DF853
:10209000020069460D48FEF7E1FD01211020FFF71F
:1020A000E1FA4FF40040ADF8000010208DF8030075
:1020B00003208DF8020069460548FEF7CFFD4FF476
:1020C00000410348FEF7A7FE08BD0000000C0140D8
:1020D0000010014010B5FFF7CDFF00F03DF900F012
:1020E000EFF810BD2DE9F04F89B004460D461646B5
:1020F0009B46002C08DA6348007820F0080008307E
:1021000060490870644205E05E48007820F00800ED
:102110005C4908705B480078C0F3C00028B94FF4F0
:1021200000415948FEF779FE04E04FF4004156485B
:10213000FEF771FE012C1FD1A01E524948610846CE
:10214000007820F00700801C08704FF47A70486017
:102150004E48007820F00100401C4C4908701421C2
:102160004B4800F022FF0A21494800F022FF0121DC
:10217000474800F0F8FD82E0002CFCD047F6B7207D
:10218000B0FBFBF03F4908614248B0FBF5F001901D
:10219000FEF7E6F8074602F019FA00223E4BCDE9B9
:1021A0000201FDF7FCFF00223C4BCDE90401FEF7E4
:1021B00068F8CDE90601FEF7E0F83249486005EB22
:1021C000450040006421B0FBF1F10BFB0BF0B0FBCC
:1021D000F1F9B9F1000F01D14FF0010904FB06F04C
:1021E000A919B0FBF1FABAF1000F01D14FF0010AC1
:1021F000CA4504D8AAEB04002249C86006E009FBDE
:1022000005F0B0FBF6F040421E49C8601D48C068AA
:1022100018B94FF0FF301B49C8601A48C068204405
:102220001849886008464068096988420AD81548F4
:102230000069144948600846007820F00700C01C77
:10224000087006E00F48007820F00700401C0D4998
:10225000087000200B4948610C48007820F001000C
:10226000401C0A4908701421094800F09EFE0A210A
:10227000074800F09EFE0121054800F074FD09B0FA
:10228000BDE8F08F640100200010014050000020E4
:1022900000080040ACDF5F000068BA400000594011
:1022A000012805D105490968491E044A116004E066
:1022B00002490968491C014A116070474C0000201E
:1022C00000B587B001210420FFF7BCF904A800F095
:1022D000C7FE0920ADF814004720ADF8100000201B
:1022E000ADF81600ADF8120004A91A4800F066FE19
:1022F0007020ADF800000120ADF802000020ADF81C
:1023000004000420ADF806000220ADF8080000200B
:10231000ADF80C0069460F4800F0A2FD08210D48F9
:1023200000F0EEFD01210B4800F00EFD01210948EF
:1023300000F09FFE0121074800F012FD0122114626
:10234000044800F02DFD0021024800F00CFD07B00C
:1023500000BD00000008004008B51E208DF80000F8
:1023600002208DF801008DF8020001208DF8030095
:102370006846FFF7C9F808BD30B10749097821F070
:102380000401054A117006E00349097821F00401AF
:10239000091D014A117070476400002008B5012131
:1023A0000820FFF75FF90120ADF8000018208DF834
:1023B000030003208DF8020069460C48FEF74EFC2E
:1023C00001211020FFF74EF92020ADF80000102069
:1023D0008DF8030003208DF8020069460448FEF7DB
:1023E0003DFC20210248FEF716FD08BD000C01400F
:1023F0000010014010B5FFF7D1FF00F03BF900F0ED
:10240000EDF810BD2DE9F04F89B004460D46164693
:102410009B46002C08DA6248007820F0080008305B
:102420005F490870644205E05D48007820F00800CC
:102430005B4908705A480078C0F3C00020B92021D9
:102440005848FEF7EAFC03E020215648FEF7E3FC7B
:10245000012C1FD1A01E524948610846007820F087
:102460000700801C08704FF47A7048604E4800786E
:1024700020F00100401C4C49087014214B4800F02A
:1024800094FD0A21494800F094FD0121474800F0DD
:102490006AFC82E0002CFCD047F6B720B0FBFBF0D2
:1024A0003F4908614248B0FBF5F00190FDF758FF45
:1024B000074602F08BF800223E4BCDE90201FDF702
:1024C0006EFE00223C4BCDE90401FDF7DAFECDE9BA
:1024D0000601FDF752FF3249486005EB4500400018
:1024E0006421B0FBF1F10BFB0BF0B0FBF1F9B9F19A
:1024F000000F01D14FF0010904FB06F0A919B0FB50
:10250000F1FABAF1000F01D14FF0010ACA4504D81F
:10251000AAEB04002249C86006E009FB05F0B0FB05
:10252000F6F040421E49C8601D48C06818B94FF017
:10253000FF301B49C8601A48C068204418498860A9
:1025400008464068096988420AD815480069144954
:1025500048600846007820F00700C01C087006E0BC
:102560000F48007820F00700401C0D49087000203B
:102570000B4948610C48007820F00100401C0A49D2
:1025800008701421094800F010FD0A21074800F0E6
:1025900010FD0121054800F0E6FB09B0BDE8F08F11
:1025A0007C01002000100140640000200004004075
:1025B000ACDF5F000068BA4000005940012805D137
:1025C00005490968491E044A116004E00249096886
:1025D000491C014A116070476000002000B587B0B7
:1025E00001210220FFF72EF804A800F039FD092090
:1025F000ADF814004720ADF810000020ADF816002B
:10260000ADF8120004A91A4800F0D8FC7020ADF80B
:1026100000000120ADF802000020ADF80400042005
:10262000ADF806000220ADF808000020ADF80C005F
:1026300069460F4800F014FC08210D4800F060FCCA
:1026400001210B4800F080FB0121094800F011FD39
:102650000121074800F084FB01221146044800F0E4
:102660009FFB0021024800F07EFB07B000BD000088
:102670000004004008B51D208DF8000002208DF8F0
:1026800001008DF8020001208DF803006846FEF776
:102690003BFF08BD10B50121880700F070FB002842
:1026A0007ED00121880700F05BFB83484068C0F3BF
:1026B0004F008249088080488088090688858048C4
:1026C0000078C0F3800028B97B48007820F007002C
:1026D000794908707848007800F0070030B1012887
:1026E0001DD0022879D0032818D177E00020754941
:1026F0000860754908604FF08040008C20F48050DD
:102700004FF08041088400214FF0804000F02BFB07
:102710006B48007820F0010069490870C7E04FF06D
:102720008040008C40F480504FF080410884624922
:102730000978C1F3C000FFF71FFC62480068401C25
:10274000604908605C484069401C5B494861084634
:1027500040685D490968022202FB00115648406941
:102760008000401C91FBF0F0534949680C1A524814
:1027700040685549096802FB00114F4840698000D4
:10278000401C91FBF0F200FB12104F4908604A48D0
:1027900080684C49096888420CD84748C06800E006
:1027A00088E0454948610846007820F00700801C11
:1027B000087011E040480069A0420DD3434804600E
:1027C0003D4804690020404908603B48007820F0FB
:1027D0000700C01C3849087069E025E04FF08040D0
:1027E000008C40F480504FF08041088432490978D1
:1027F000C1F3C000FFF7C0FB32480068401C3149FC
:1028000008602D4804698068096888420BD82A4806
:10281000C068294948612D4804680846007820F0BE
:102820000700801C087042E04FF08040008C40F4AC
:1028300080504FF0804108841F490978C1F3C000DF
:10284000FFF79AFB1F480068401C1E4908601A48A1
:102850004069401C18494861084640681A4909689F
:10286000022202FB0011144840698000401C91FBC9
:10287000F0F0114949680C1A0F484068124909687C
:1028800002FB00110C4840698000401C91FBF0F2F3
:1028900000FB12100C49086007484069002805DB5E
:1028A0000548007820F007000349087000BF00BF0A
:1028B0000148446010BD00004C0100204000004071
:1028C0003C00002044000020480000204000002080
:1028D00010B50121874800F052FA00287ED001216E
:1028E000844800F03DFA84484068C0F34F008149B5
:1028F00040310880804880887E492C3108807F489C
:102900000078C0F3800028B97B48007820F00700E9
:10291000794908707848007800F0070030B1012844
:102920001CD0022878D0032817D176E00020744903
:102930000860744908606F482030008820F4805097
:102940006C492031088000216A4800F00CFA6B487D
:10295000007820F0010069490870C7E06548203020
:10296000008840F48050634920310880624909782A
:10297000C1F3C000FFF722FE61480068401C6049B7
:1029800008605D484069401C5B49486108464068F2
:102990005C490968022202FB001157484069800027
:1029A000401C91FBF0F0544949680C1A52484068A9
:1029B0005449096802FB00114F4840698000401CDF
:1029C00091FBF0F200FB12104E4908604A48806803
:1029D0004B49096888420CD8474800E089E0C06844
:1029E000454948610846007820F00700801C0870BF
:1029F00011E041480069A0420DD3434804603E48BD
:102A0000046900203F4908603B48007820F0070037
:102A1000C01C3949087069E025E03648203000883C
:102A200040F4805033492031088033490978C1F39C
:102A3000C000FFF7C3FD32480068401C3049086001
:102A40002D4804698068096888420BD82A48C06804
:102A5000294948612C4804680846007820F007009E
:102A6000801C087042E023482030008840F48050E9
:102A700020492031088020490978C1F3C000FFF7C0
:102A80009DFD1F480068401C1D4908601A484069A8
:102A9000401C19494861084640681A4909680222E1
:102AA00002FB0011144840698000401C91FBF0F0CB
:102AB000114949680C1A104840681249096802FB1C
:102AC00000110D4840698000401C91FBF0F200FBB2
:102AD00012100C49086008484069002805DB0648C8
:102AE000007820F007000449087000BF00BF0248CA
:102AF000446010BD000400407C0100206400002000
:102B00006C000020700000206800002010B501213A
:102B1000874800F034F900287ED00121844800F075
:102B20001FF984484068C0F34F0081494031088054
:102B3000804880887E492C3108807F480078C0F327
:102B4000800028B97B48007820F007007949087098
:102B50007848007800F0070030B101281CD0022826
:102B600078D0032817D176E00020744908607449B2
:102B700008606F482030008820F480506C49203174
:102B8000088000216A4800F0EEF86B48007820F0D9
:102B9000010069490870C7E065482030008840F4AA
:102BA000805063492031088062490978C1F3C00030
:102BB000FFF776FB61480068401C604908605D488B
:102BC0004069401C5B494861084640685C490968A7
:102BD000022202FB0011574840698000401C91FB13
:102BE000F0F0544949680C1A524840685449096841
:102BF00002FB00114F4840698000401C91FBF0F23D
:102C000000FB12104E4908604A4880684B49096829
:102C100088420CD8474800E089E0C06845494861CF
:102C20000846007820F00700801C087011E0414839
:102C30000069A0420DD3434804603E480469002067
:102C40003F4908603B48007820F00700C01C394924
:102C5000087069E025E036482030008840F4805054
:102C600033492031088033490978C1F3C000FFF7A8
:102C700017FB32480068401C304908602D48046941
:102C80008068096888420BD82A48C0682949486189
:102C90002C4804680846007820F00700801C087063
:102CA00042E023482030008840F480502049203101
:102CB000088020490978C1F3C000FFF7F1FA1F48E6
:102CC0000068401C1D4908601A484069401C1949A9
:102CD0004861084640681A490968022202FB00114F
:102CE000144840698000401C91FBF0F0114949688C
:102CF0000C1A104840681249096802FB00110D487F
:102D000040698000401C91FBF0F200FB12100C495E
:102D1000086008484069002805DB0648007820F074
:102D200007000449087000BF00BF0248446010BD9E
:102D300000080040640100205000002058000020DE
:102D40005C0000205400002021B1028842F0800283
:102D5000028004E002884FF67F731A4002807047B9
:102D6000CA430282704721B1028842F00102028008
:102D700004E002884FF6FE731A400280704730B5B7
:102D80000246002000230024158A05EA01039589E4
:102D900005EA010413B10CB1012000E0002030BDB0
:102DA0001AB183890B43838102E083898B4383813A
:102DB0007047000070B5002400220023058C4FF6F8
:102DC000FE7635400584028C8388048B4FF68F7520
:102DD0002C40B51E2C400D882C43751E2A400D89B1
:102DE0002A434D882A43144DA8420BD0134DA842C4
:102DF00008D0134DA84205D0124DA84202D0124D62
:102E0000A84213D14FF6F7752A404D892A434FF651
:102E1000FB752A408D882A434FF6FF652B404FF6FD
:102E2000FF552B408D892B43CD892B438380048311
:102E3000CD888586028470BD002C0140003401409D
:102E40000040014000440140004801400A46002182
:102E5000018B4FF6F773194011430183704700004F
:102E600070B5002400220023058C4FF6FF66354024
:102E70000584028C8388848B4FF68F752C404FF627
:102E8000FC752C400D882C434FF6FF552A400D89C8
:102E90004FF6FF7606EA05252A434D8806EA052502
:102EA0002A43154DA84202D0144DA8421DD14FF21D
:102EB000FF752A404D894FF6FF7606EA05252A431D
:102EC0004FF6FF352A408D8806EA05252A434EF63F
:102ED000FF752B404DF6FF752B408D8906EA0515D1
:102EE0002B43CD8906EA05152B4383808483CD8847
:102EF0008587028470BD0000002C01400034014031
:102F00000A460021818B4FF6F773194011438183E4
:102F10007047000070B5002200230024058C4EF697
:102F2000FF7635400584038C8488828B48F6FF75D4
:102F30002A404FF6FF452A400D884FF6FF7606EAF5
:102F400005252A434DF6FF752B400D8906EA053508
:102F50002B434D8806EA05352B430B4DA84202D082
:102F60000A4DA84208D14BF6FF752C408D894FF6CB
:102F7000FF7606EA85152C4384808283CD88A0F8ED
:102F80004050038470BD0000002C0140003401401B
:102F90000A460021818B4FF2FF7319404FF6FF73F1
:102FA00003EA022319438183704781857047818634
:102FB00070470187704781877047000000220288B0
:102FC0001D4B98420ED01D4B98420BD0B0F1804F54
:102FD00008D01B4B984205D01A4B984202D01A4B8E
:102FE000984204D14FF68F731A404B881A43174BFF
:102FF000984207D0164B984204D04FF6FF431A4030
:10300000CB881A4302808B8883850B8803850A4B03
:1030100098420BD0094B984208D00E4B984205D0ED
:103020000D4B984202D00D4B984201D10B7A03868A
:103030000123838270470000002C014000340140CE
:103040000004004000080040000C00400010004058
:10305000001400400040014000440140004801408D
:103060004FF6FF71818000210180C1804180017293
:10307000704721B1028842F00402028004E0028815
:103080004FF6FB731A4002807047000010B540F203
:1030900025511D4800F0FEF810B31B4800F0B6F9AA
:1030A000C4B21A48008800F40040C8B91748008824
:1030B00000F4804060B10A2C03D00020134908803E
:1030C00020E01248008840F400401049088019E0D0
:1030D0000D2C06D10D48008840F480400B49088033
:1030E00010E00A480088C0F30D0009490C54074855
:1030F0000088401C0549088008460088C72801DD73
:103100000020088010BD000000380140DC000020D5
:103110005C02002010B540F225511D4800F0BAF8BD
:1031200010B31B4800F072F9C4B21A48008800F4CA
:103130000040C8B91748008800F4804060B10A2CEC
:1031400003D000201349088020E01248008840F492
:1031500000401049088019E00D2C06D10D48008868
:1031600040F480400B49088010E00A480088C0F312
:103170000D0009490C5407480088401C0549088087
:1031800008460088C72801DD0020088010BD000027
:1031900000480040800000209401002010B586B057
:1031A000044601210820FEF75DFA01218804FEF79C
:1031B00049FA4FF48060ADF8140003208DF8160032
:1031C00018208DF8170005A91C48FDF747FD4FF49E
:1031D0000060ADF8140004208DF8170005A9174809
:1031E000FDF73CFD27208DF8000003208DF801003D
:1031F0008DF8020001208DF803006846FEF784F97F
:1032000001940020ADF80800ADF80A00ADF80C00FC
:10321000ADF810000C20ADF80E0001A9084800F030
:1032200089F8012240F22551054800F05DF801219E
:10323000034800F023F806B010BD0000000C014068
:103240000048004000BF0549098801F040010029FD
:10325000F9D00249091D088070470000004800406D
:1032600030B502460B46002405E012F8010BFFF7CB
:10327000E9FF601CC4B29C42F7DB30BD21B18289FA
:1032800042F40052828104E082894DF6FF731A40B5
:103290008281704770B5024600240023002500207B
:1032A00040F66A16B14200D100BFC1F3421501F0E9
:1032B0001F03012606FA03F3012D02D1968933403C
:1032C00006E0022D02D1168A334001E0968A33408F
:1032D0000C12012606FA04F41688344013B10CB11E
:1032E000012000E0002070BDF0B503460024002658
:1032F0000025002040F66A17B94200D100BF1846E9
:10330000C1F3421401F01F06012707FA06F5012C4C
:1033100001D10C3004E0022C01D1103000E0143057
:103320001AB107682F43076002E00768AF430760E0
:10333000F0BD00002DE9F04786B005460E4600249A
:10334000A24600BFA1460027B08900B100BF2F46AA
:103350002C8A4CF6FF700440F08804432C82AC8920
:103360004EF6F3100440B088318908437189084350
:103370000443AC81AC8A4FF6FF400440B08904435B
:10338000AC8201A8FEF77EF91F48874202D1DDF822
:1033900010A001E0DDF80CA0A88900F4004040B1C5
:1033A0000AEBCA0000EB0A1031684900B0FBF1F8E3
:1033B00007E00AEBCA0000EB0A1031688900B0FB95
:1033C000F1F86420B8FBF0F004012009642101FB4E
:1033D0001089A88900F4004040B1322000EBC900F8
:1033E000B0FBF1F000F00700044308E0322000EBEE
:1033F00009106421B0FBF1F000F00F0004432C81B0
:1034000006B0BDE8F087000000380140014688881A
:10341000C0F30800704700BFFEE7000010B5044687
:103420006CB90120D5490870D5A000F0E3FAD6A107
:103430000220FEF70AFBC82000F0CEFB9DE1CF483A
:10344000007800287DD00020CC490870D34800784F
:10345000052877D008DC01280FD0022835D00328B2
:103460005BD004286FD187E006286DD018286CD077
:1034700019286BD01A28F5D146E1C9A000F0BAFA94
:10348000CCA10220FEF7E1FA4FF4487000F0A4FB53
:103490000020FEF74DFCCF490968CF4A1268881A10
:1034A0004FF4FA731A461946FEF78AFC0020FEF71D
:1034B000CFFDCA490968CA4A1268881A4FF4FA73DC
:1034C0001A461946FEF70EFE47E1C6A000F092FA32
:1034D000C9A10220FEF7B9FA4FF4487000F07CFB56
:1034E0000020FEF725FCCC490968BB4A1268881AFF
:1034F0004FF4FA731A461946FEF762FC0020FEF7F5
:10350000A7FDC6490968B64A1268881A4FF4FA73CB
:103510001A461946FEF7E6FD1FE1C1A000F06AFA5F
:10352000C4A10220FEF791FA4FF4487000F054FB5A
:103530000020FEF7FDFBC7490968A74A1268881AF0
:1035400005E00BE140E007E166E08DE0B4E04FF418
:10355000FA731A461946FEF733FC0020FEF778FD91
:10356000BD4909689E4A1268881A4FF4FA731A46D0
:103570001946FEF7B7FDF0E0B8A000F03BFABCA199
:103580000220FEF762FA4FF4487000F025FB00209D
:10359000FEF7CEFBBE4909688F4A1268881A4FF4BD
:1035A000FA731A461946FEF70BFC0020FEF750FD91
:1035B000B84909688A4A1268881A4FF4FA731A4699
:1035C0001946FEF78FFDC8E0B3A000F013FAB7A1CB
:1035D0000220FEF73AFA4FF4487000F0FDFA00209E
:1035E000FEF7A6FBB94909687B4A1268881A4FF4AE
:1035F000FA731A461946FEF7E3FB0020FEF728FD92
:10360000B3490968764A1268881A4FF4FA731A4661
:103610001946FEF767FDA0E0AEA000F0EBF9B2A1FD
:103620000220FEF712FA4FF4487000F0D5FA00209D
:10363000FEF77EFBB4490968674A1268881A4FF49E
:10364000FA731A461946FEF7BBFB0020FEF700FD91
:10365000AE490968624A1268881A4FF4FA731A462A
:103660001946FEF73FFD78E0A9A000F0C3F9ADA12F
:103670000220FEF7EAF94FF4487000F0ADFA00209E
:10368000FEF756FBAF490968534A1268881A4FF48F
:10369000FA731A461946FEF793FB0020FEF7D8FC92
:1036A000A94909684E4A1268881A4FF4FA731A46F3
:1036B0001946FEF717FD50E0A4A000F09BF9A8A161
:1036C0000220FEF7C2F94FF4487000F085FA00209E
:1036D000FEF72EFBAA4909683F4A1268881A4FF480
:1036E000FA731A461946FEF76BFB0020FEF7B0FC92
:1036F000A44909683A4A1268881A4FF4FA731A46BC
:103700001946FEF7EFFC28E09FA000F073F9A3A193
:103710000220FEF79AF94FF4487000F05DFA00209D
:10372000FEF706FBA54909682B4A1268881A4FF470
:10373000FA731A461946FEF743FB0020FEF788FC91
:103740009F490968264A1268881A4FF4FA731A4684
:103750001946FEF7C7FC00E000BF0EE099A000F09C
:1037600049F99DA10220FEF770F940F2DC5000F00B
:1037700033FA40F2DC5000F02FFA10BD02000020B6
:10378000CAD5B5BD0D0A00005B7631365D5B6D3183
:103790005D5B74355DCAD5B5BD0000000100002039
:1037A00022D6D0D0C422CAB6B1F0B3C9B9A60D0A88
:1037B000000000005B7631365D5B6D315D5B74351A
:1037C0005DBAC3B5C42CD2C6B6AFB5BDD6D0D0C4D1
:1037D00000000000A400002038000020A800002005
:1037E0004C00002022D7F3B1DF22CAB6B1F0B3C932
:1037F000B9A60D0A000000005B7631365D5B6D31C5
:103800005D5B74355DBAC3B5C42CD2C6B6AFB5BD69
:10381000D7F3B1DF000000009C000020A0000020D2
:1038200022D3D2B1DF22CAB6B1F0B3C9B9A60D0A0C
:10383000000000005B7631365D5B6D315D5B743599
:103840005DBAC3B5C42CD2C6B6AFB5BDD3D2B1DF55
:1038500000000000AC000020B000002022C9CFC34F
:10386000E622CAB6B1F0B3C9B9A60D0A000000003D
:103870005B7631365D5B6D315D5B74355DBAC3B5CA
:10388000C42CD2C6B6AFB5BDC9CFC3E60000000098
:103890008C0000209000002022CFC2C3E622CAB6CE
:1038A000B1F0B3C9B9A60D0A000000005B7631364D
:1038B0005D5B6D315D5B74355DBAC3B5C42CD2C63A
:1038C000B6AFB5BDCFC2C3E600000000BC0000200B
:1038D000C000002022D7F3C9CF22CAB6B1F0B3C9C5
:1038E000B9A60D0A000000005B7631365D5B6D31D4
:1038F0005D5B74355DBAC3B5C42CD2C6B6AFB5BD79
:10390000D7F3C9CF00000000840000208800002009
:1039100022D7F3CFC222CAB6B1F0B3C9B9A60D0AF5
:10392000000000005B7631365D5B6D315D5B7435A8
:103930005DBAC3B5C42CD2C6B6AFB5BDD7F3CFC23E
:1039400000000000B4000020B800002022D3D2C93B
:10395000CF22CAB6B1F0B3C9B9A60D0A0000000063
:103960005B7631365D5B6D315D5B74355DBAC3B5D9
:10397000C42CD2C6B6AFB5BDD3D2C9CF00000000AB
:10398000940000209800002022D3D2CFC222CAB6D1
:10399000B1F0B3C9B9A60D0A000000005B7631365C
:1039A0005D5B6D315D5B74355DBAC3B5C42CD2C649
:1039B000B6AFB5BDD3D2CFC200000000C400002016
:1039C000C8000020C7EBCBB5B3F6D2BBBCB6BFDA9C
:1039D000C1EE0D0A000000005B7631365D5B6D3193
:1039E0005D5B74355DC7EBCBB5B3F6D2BBBCB6BF80
:1039F000DAC1EE000FB4054B10B503A9044A0298D2
:103A000000F01EF810BC5DF814FB0000A13C00089B
:103A1000D800002002E008C8121F08C1002AFAD10D
:103A200070477047002001E001C1121F002AFBD13E
:103A3000704700000149086070470000080100203D
:103A40002DE9FF4F89B09B460446002506E0252856
:103A50000BD05A460B999047641C6D1C20780028A7
:103A6000F5D10DB02846BDE8F08F0027B8460122F9
:103A7000474900E0074314F8013F203B02FA03F0F6
:103A80000842F7D120782E2819D114F8010F47F0F9
:103A900004072A280ED06FF02F022078A0F1300101
:103AA00009290CD808EB880102EB410100EB010861
:103AB000641CF2E70A98641C50F8048B0A90207882
:103AC0000028CED0642808D0692806D075281ED0DA
:103AD0005A460B9990476D1C58E00A994FF00A0915
:103AE00001C90A91002802DA40422D2102E039057D
:103AF00004D52B218DF82010012103E0F90704D013
:103B00002021F7E78A4608AE0DE00021FAE70A997E
:103B10004FF00A0901C90A91F7E74946FCF746FC4C
:103B2000303106F8011D0028F7D1ADEB060000F199
:103B30002009780701D44FF00108C84502DDA8EB41
:103B4000090000E000208046002706E008A85A4649
:103B5000C05D0B9990476D1C7F1C5745F6DB04E058
:103B600030205A460B9990476D1CB8F10001A8F11E
:103B70000108F5DC05E016F8010B5A460B99904751
:103B80006D1CB9F10001A9F10109F4DC641C65E7C1
:103B90000928010010B56FF00400FEF784F80A4808
:103BA00000680A49B0FBF1F009490870084600783E
:103BB00000EB4001C1EBC0104FF6FF7101EAC000FD
:103BC0000449088010BD0000E000002000127A00C7
:103BD000D2000020D40000200146114A12884A4336
:103BE0004FF0E0235A6100229A611A46126942F0AE
:103BF00001021A6100BF4FF0E022106900F00102DB
:103C00001AB100F48032002AF5D04FF0E022126998
:103C100022F001024FF0E0231A6100229A617047FE
:103C2000D40000200146114A12784A434FF0E023A5
:103C30005A6100229A611A46126942F001021A6121
:103C400000BF4FF0E022106900F001021AB100F449
:103C50008032002AF5D04FF0E022126922F00102F2
:103C60004FF0E0231A6100229A617047D2000020D1
:103C700008B501211020FDF7F5FC1020ADF800007B
:103C80008DF8030003208DF8020069460348FCF715
:103C9000E5FF10210148FDF7C0F808BD0010014004
:103CA00000BF054A128802F04002002AF9D0C2B2D1
:103CB000014B1B1D1A807047003801404FF4A06073
:103CC000FDF75AFCFFF766FF4FF4E13000F0A4FC6B
:103CD000FEF76EF8FEF7FEF9FEF78CFBFDF766FFC8
:103CE000FCF73CFFFDF7B8F8FCF7A7FEFDF7DCFAA0
:103CF0004FF41650FFF752FA00F010F9FDF78CFD63
:103D0000FDF77CFB5749087008460078012803D16D
:103D100055A0FFF76FFE02E05AA0FFF76BFEFDF71C
:103D200093FB00206249087062490860624801887C
:103D30006248FFF73CF9624801886048FFF73BF9A9
:103D40008EE06048007801280DD10020FDF7F0FFDB
:103D50004FF47A731A4619464FF4C870FEF730F8DC
:103D60000020584908705848007801280CD10020DC
:103D7000FEF76EF94FF4FA731A4619465800FEF72B
:103D8000B1F90020504908705048007801280DD141
:103D90000020FEF7F1FA42F210731A4619464FF46A
:103DA0007A70FEF72FFB00204849087048480078D9
:103DB00001280FD10020FEF7DFFA46490968C1F556
:103DC0007A7042F210731A461946FEF71BFB002068
:103DD0003F49087040480078012816D13C203849F6
:103DE0000880084601883548FFF7E5F84FF4FA7077
:103DF000FFF7F2FEB42030490880084601882F48BA
:103E0000FFF7D5F80020344908703448007820B115
:103E1000012805D0022809D105E000F06DFA06E07E
:103E200000F0A2FB03E000F069F900E000BF00BF72
:103E30002B480088012802D003280CD105E000F0AF
:103E4000B3F800202649088009E0FCF7A5FB002014
:103E50002349088003E000202149088000BF00BFFB
:103E60006FE700002E0000200D0A202020202020D7
:103E70004E5246D3EB4D4355C1ACBDD3B3C9B9A6E1
:103E80000D0A00000D0A202020D5FDD4DABCECB2CA
:103E9000E24E5246D3EB4D4355CAC7B7F1D5FDB3F9
:103EA000A3C1ACBDD3A1A3A1A3A1A30D0A0000008F
:103EB000000000209081214230000020000C0040D2
:103EC0003200002028000020290000202A000020C5
:103ED0002B000020600000202C0000202D0000207E
:103EE0003400002008B501210420FDF7BBFB0420AD
:103EF000ADF8000018208DF8030003208DF80200B3
:103F000069460548FCF7AAFE0120ADF800006946A5
:103F10000148FCF7A3FE08BD0008014010B5FFF7FB
:103F2000E1FF00F003F8FFF7A3FE10BD00B587B076
:103F300001210820FDF786FB40F2CF70ADF8140098
:103F400040F2CF20ADF810000020ADF81600ADF81B
:103F500012008DF8180004A91248FFF72FF87020FE
:103F6000ADF800000120ADF802000220ADF8080015
:103F700069460C48FEF71EFF08210A48FEF766FF57
:103F800069460848FEF76CFF08210648FEF7B8FFAF
:103F900001210448FEF7D8FE01210248FEF7E3FEA6
:103FA00007B000BD000C004010B53C204E49088011
:103FB00096204E4908804C4801884D48FEF7FBFF8B
:103FC00010204C4948614CF25030FFF705FE44F692
:103FD0002060FFF701FE0020474908701BE04248BF
:103FE00000880A304049088040480088801E3F49C8
:103FF00008803D4801883E48FEF7DDFF3B480188C8
:104000003B48FEF7D4FF6420FFF7E6FD3A4800780E
:10401000401C39490870384800780C28DFDB102034
:104020003449086100203449087011E02F480088A5
:10403000001F2E490880084601882D48FEF7B7FF6B
:104040006420FFF7C9FD2C480078401C2A490870FD
:10405000294800780228E9DB4FF47A60FFF7BCFDBD
:104060004FF47A60FFF7B8FD00202349087011E093
:104070001E480088801C1D490880084601881C488D
:10408000FEF795FF6420FFF7A7FD1B480078401C52
:1040900019490870184800780628E9DB00201649FD
:1040A00008701BE0104800880C380F4908800F4842
:1040B0000088801C0D4908800B4801880C48FEF7D9
:1040C0007AFF0A4801880A48FEF771FFC820FFF707
:1040D00083FD09480078401C0749087006480078AD
:1040E0000A28DFDB10BD0000320000203000002075
:1040F000000C004000100140D000002010B55348D3
:10410000FDF7D0F95249087050480078012804D0D2
:10411000022816D0032837D122E04EA0FFF76AFC10
:1041200000204A490870FDF703FE4D4909684D4AD1
:104130001268881A4FF4FA731A461946FDF740FEC2
:1041400023E049A0FFF756FC0020404908700120F9
:10415000FDF7EEFD4348016846A0FFF74BFC14E075
:1041600049A0FFF747FC002038490870FDF7E0FD43
:10417000484909683B4A1268881A4FF4FA731A468C
:104180001946FDF71DFE00E000BF00BF2F48407834
:10419000012804D0022816D0032837D122E03EA0FF
:1041A000FFF728FC002029494870FDF751FF3D49E1
:1041B00009683D4A1268881A4FF4FA731A4619467C
:1041C000FDF790FF23E039A0FFF714FC00201F4902
:1041D00048700120FDF73CFF3348016836A0FFF727
:1041E00009FC14E039A0FFF705FC002017494870CE
:1041F000FDF72EFF384909682B4A1268881A4FF4D8
:10420000FA731A461946FDF76DFF00E000BF00BFC4
:104210000E488078012802D0032814D109E02FA08D
:10422000FFF7E8FB00200949887001202E4908802B
:104230000AE02EA0FFF7DEFB00200449887003206F
:104240002949088000E000BF00BF10BD2C010020FC
:104250002E0000200A2058D6E1C7B0BDF8200A0081
:1042600010000020380000200A2058D6E1CDA3D647
:10427000B9200A000A20B5B1C7B058CEBBD6C3CE0C
:10428000AA2564200A0000000A2058D6E1BAF3CD1E
:10429000CB200A00040000200A2059D6E1C7B0BD97
:1042A000F8200A00080000204C0000200A2059D6FF
:1042B000E1CDA3D6B9200A000A20B5B1C7B059CEC6
:1042C000BBD6C3CEAA2564200A0000000A2059D616
:1042D000E1BAF3CDCB200A00140000200A20B7ADCC
:1042E000C7B0D2B3200A0000340000200A20B7ADC6
:1042F000BAF3D2B3200A000010B56648FDF7D2F831
:104300006549087063480078012804D0022816D057
:10431000032837D122E061A0FFF76CFB00205D4944
:104320000870FDF705FD60490968604A1268881A3F
:104330004FF4FA731A461946FDF742FD23E05CA0DC
:10434000FFF758FB0020534908700120FDF7F0FCEF
:104350005648016859A0FFF74DFB14E05CA0FFF739
:1043600049FB00204B490870FDF7E2FC5B490968F6
:104370004E4A1268881A4FF4FA731A461946FDF726
:104380001FFD00E000BF00BF42484078012804D074
:10439000022816D0032837D122E051A0FFF72AFBCC
:1043A00000203C494870FDF753FE50490968504AC7
:1043B0001268881A4FF4FA731A461946FDF792FEEE
:1043C00023E04CA0FFF716FB002032494870012083
:1043D000FDF73EFE4648016849A0FFF70BFB14E0DD
:1043E0004CA0FFF707FB00202A494870FDF730FE7C
:1043F0004B4909683E4A1268881A4FF4FA731A4604
:104400001946FDF76FFE00E000BF00BF214880782D
:10441000012804D0022816D0032837D122E041A079
:10442000FFF7E8FA00201B498870FDF7A5FF404917
:104430000968404A1268881A4FF4FA731A461946F6
:10444000FDF7E0FF23E03CA0FFF7D4FA002011497C
:1044500088700120FDF790FF3648016839A0FFF70A
:10446000C9FA14E03CA0FFF7C5FA0020094988709A
:10447000FDF782FF3B4909682E4A1268881A4FF4FB
:10448000FA731A461946FDF7BDFF00E000BF00BFF2
:1044900010BD00002C0100202E0000200A2058D65C
:1044A000E1C7B0BDF8200A0010000020380000204D
:1044B0000A2058D6E1CDA3D6B9200A000A20B5B10A
:1044C000C7B058CEBBD6C3CEAA2564200A000000D0
:1044D0000A2058D6E1BAF3CDCB200A000400002010
:1044E0000A2059D6E1C7B0BDF8200A000800002014
:1044F0004C0000200A2059D6E1CDA3D6B9200A00ED
:104500000A20B5B1C7B059CEBBD6C3CEAA25642008
:104510000A0000000A2059D6E1BAF3CDCB200A00E8
:10452000140000200A205AD6E1C7B0BDF8200A00C6
:104530000C000020600000200A205AD6E1CDA3D64E
:10454000B9200A000A20B5B1C7B05ACEBBD6C3CE37
:10455000AA2564200A0000000A205AD6E1BAF3CD49
:10456000CB200A001800002010B51648007810284B
:1045700015D003DC48B101281DD104E011281BD05F
:10458000312818D100E000BF1AE001200D49087061
:10459000FDF7E2F810B931200A49087010E0FCF785
:1045A0005DFD0949087008460078FEF737FF0020D6
:1045B0000449087004E000BF00200249087000BFF1
:1045C00000BF10BD00000020010000202DE9F041D7
:1045D00006460F46FBF76DFF041E0D4618BF01206F
:1045E000284320F00040C0F17F6000F1E040C00FA0
:1045F0000ED0301C18BF0120384320F00040C0F11D
:104600007F6000F1E040C00F04BF0120FFF712FA05
:1046100020462946BDE8F08110B586B00446012148
:1046200044F20400FDF71EF84FF40070ADF81400DA
:1046300003208DF8160018208DF8170005A91C48D6
:10464000FCF70CFB4FF48060ADF8140004208DF8EB
:10465000170005A91648FCF701FB25208DF800007E
:1046600003208DF801008DF8020001208DF8030071
:104670006846FCF749FF01940020ADF80800ADF84A
:104680000A00ADF80C00ADF810000C20ADF80E00DB
:1046900001A90848FEF74EFE012240F225510548C7
:1046A000FEF722FE01210348FEF7E8FD06B010BD2B
:1046B00000080140003801407869616F206261693B
:1046C0000000000000000000000000007A686F6E2B
:1046D000672078696E000000000000000000000004
:1046E0007A756F206269616E0000000000000000B2
:1046F00000000000796F75206269616E00000000A3
:1047000000000000000000007368616E67206D69A2
:10471000616E000000000000000000007869612068
:104720006D69616E000000000000000000000000E4
:104730007A756F207368616E6700000000000000EA
:10474000000000007A756F207869610000000000A9
:104750000000000000000000796F75207368616E32
:10476000670000000000000000000000796F752065
:1047700078696100000000000000000000000000F7
:104780007A686F6E67206A69616E00000000000041
:10479000000000006461206B6169206B6F6E672010
:1047A0007469616F000000006775616E20626920A6
:1047B0006B6F6E67207469616F000000686F752011
:1047C0007475690000000000000000000000000097
:1047D000F0470008000000200C010000143A000817
:1047E000FC4800080C0100201C060000243A0008C8
:1047F00000000000483F0000803E0000409C000098
:10480000C8000000E8030000E8030000000000000A
:104810000000000000000000000000000000000098
:1048200096003C00000000000000000004000000B2
:104830000000000000000000000000000000000078
:104840000400000000000000000000000000000064
:104850000000000004000000000000000000000054
:104860000000000034431010013443101001000018
:1048700000000000C8000000803E0000082000008A
:10488000803E0000483F0000803E0000C80000005D
:10489000342100000820000034210000483F0000BF
:1048A00034210000C8000000E803000008200000D8
:1048B000E8030000483F0000E8030000409C0000BF
:1048C00000000000000000000000000000000000E8
:1048D00000A24A04000000000000000001020304DE
:1048E0000607080900000000010203040102030496
:0C48F0000607080902040608000000008A
:0400000508000131BD
:00000001FF
